:10F800000C943E7C0C945B7C0C945B7C0C945B7C39
:10F810000C945B7C0C945B7C0C945B7C0C945B7C0C
:10F820000C945B7C0C945B7C0C945B7C0C945B7CFC
:10F830000C945B7C0C945B7C0C945B7C0C945B7CEC
:10F840000C945B7C0C945B7C0C945B7C0C945B7CDC
:10F850000C945B7C0C945B7C0C945B7C0C945B7CCC
:10F860000C945B7C0C945B7C0C945B7C0C945B7CBC
:10F870000C945B7C0C945B7C0C945B7C11241FBE11
:10F88000CFEFD0E1DEBFCDBF11E0A0E0B1E0E0E31B
:10F89000FFEF02C005900D92A230B107D9F712E038
:10F8A000A2E0B1E001C01D92AD30B107E1F70E94C6
:10F8B000437D0C94977F0C94007C982F8091C0001E
:10F8C00085FFFCCF9093C60008951F93982F8595D0
:10F8D0008595859585958A304CF0282F295A892F52
:10F8E0008F708A304CF0182F195A08C0282F205DCD
:10F8F000892F8F708A30BCF7182F105D822F0E94DD
:10F900005D7C812F0E945D7C1F910895EF92FF9294
:10F910000F931F932898EE24FF2487018091C00045
:10F9200087FD17C00894E11CF11C011D111D81E425
:10F93000E81682E4F8068FE0080780E0180770F305
:10F94000E0910401F091050109958091C00087FFC5
:10F95000E9CF289A8091C600992787FD90951F913D
:10F960000F91FF90EF9008951F930E94867C182FAF
:10F970000E945D7C113634F01755812F992787FD41
:10F9800090950CC0103334F01053812F992787FDC8
:10F99000909504C0812F992787FD90951F91089518
:10F9A0001F930E94B47C182F0E94B47C1295107F84
:10F9B000180F812F992787FD90951F9108951F9308
:10F9C000182F11501F3F21F00E94867C1150E0F744
:10F9D0001F9108951F93182F0E94867C803269F032
:10F9E000809103018F5F80930301853079F4E0916A
:10F9F0000401F0910501099509C084E10E945D7C34
:10FA0000812F0E945D7C80E10E945D7C1F910895A2
:10FA10000E94867C803271F0809103018F5F809319
:10FA20000301853009F00895E0910401F09105018A
:10FA30000995089584E10E945D7C80E10E945D7CCF
:10FA40000895482F28E833E180E991E00197F1F724
:10FA500021503040C9F714C0289A28EE33E080E9DD
:10FA600091E00197F1F721503040C9F7289820E242
:10FA700033E080E991E00197F1F721503040C9F778
:10FA8000415050F70895CFEFD0E1DEBFCDBF94B71E
:10FA900014BE8091600088618093600010926000C5
:10FAA00091FFA2C189E18093C4001092C50088E152
:10FAB0008093C10086E08093C2005098589A209AA3
:10FAC00084E00E94217D83E00E94217DFF240E942A
:10FAD000867C8033D1F1FF2009F483C0813309F49F
:10FAE0003FC0803409F45CC0813409F462C08234C0
:10FAF00009F471C0853471F1803579F1823569F18D
:10FB0000813509F46BC1853509F45DC1863509F489
:10FB10004AC1843609F4E4C0843709F47BC08537D0
:10FB200009F463C0863709F452C0809103018F5FE6
:10FB300080930301853059F6E0910401F0910501AD
:10FB400009950E94867C803331F60E94087DFF244F
:10FB5000F394BDCF85E00E94DF7C0E94087DB7CF83
:10FB60000E94867C803209F784E10E945D7C81E4FA
:10FB70000E945D7C86E50E945D7C82E50E945D7C42
:10FB800080E20E945D7C89E40E945D7C83E50E94A6
:10FB90005D7C80E50E945D7C80E10E945D7C97CF6A
:10FBA0000E94867C8638C8F20E94867C0E94087D6E
:10FBB0008ECF0E94867C803809F49AC1813809F47E
:10FBC00093C1823809F498C1883909F4F8C080E0FB
:10FBD0000E94EA7C7CCF84E10E94DF7C0E94087D49
:10FBE00076CF88E080936000FFCF0E94867C8032D1
:10FBF00009F09BCF84E10E945D7C8EE10E945D7CD8
:10FC000086E90E945D7C8AE00E945D7C80E10E9422
:10FC10005D7C5DCF0E94867C809309020E94867C79
:10FC2000809308028091060190910701880F991F27
:10FC300090930701809306010E94867C853409F425
:10FC40004DC180910C028E7F80930C020E94867CB5
:10FC5000803209F03CCF84E10E945D7C80910802F3
:10FC600090910902009791F2C0E0D0E02091060146
:10FC7000309107011AC041FD0CC0F90184910E9426
:10FC80005D7C8091080290910902209106013091DB
:10FC90000701F90131969F01F0930701E0930601F6
:10FCA0002196C817D90708F0B1CF40910C0240FF48
:10FCB000E2CFF999FECF32BD21BDF89A80B50E94FE
:10FCC0005D7C20910601309107012F5F3F4F3093FB
:10FCD0000701209306018091080290910902E0CF6C
:10FCE0000E94867C809309020E94867C8093080291
:10FCF00080910C028E7F80930C020E94867C85345A
:10FD000009F4E6C08091080290910902892B81F0E4
:10FD1000C0E0D0E00E94867CFE01E85FFE4F808359
:10FD200021968091080290910902C817D90790F393
:10FD30000E94867C803209F0F8CE80910C0280FF10
:10FD400059C02091060130910701220F331F3093D3
:10FD500007012093060140910802509109024115C4
:10FD60005105D1F0B901A0E0B0E0F999FECF72BD24
:10FD700061BDFD01E85FFE4F808180BDFA9AF99A6E
:10FD800011966F5F7F4FA417B50779F7420F531F86
:10FD9000509307014093060184E10E945D7C80E15D
:10FDA0000E945D7C94CE0E94867C803309F4A8C0BA
:10FDB00083E00E94DF7C80E00E94EA7C88CE83E0C2
:10FDC0000E94EA7C84CE0E94867C809306010E9479
:10FDD000867C809307010E94087D79CE0E94087D71
:10FDE00088E080936000FFCFE0910401F09105016D
:10FDF000099558CE8091070187FD66C010920B02CD
:10FE00008091060190910701880F991F9093070137
:10FE1000809306018091080280FF09C0809108024A
:10FE20009091090201969093090280930802F89438
:10FE3000F999FECF1127E0910601F0910701C8E082
:10FE4000D1E08091080290910902103091F4009164
:10FE5000570001700130D9F303E000935700E89593
:10FE60000091570001700130D9F301E10093570070
:10FE7000E895099019900091570001700130D9F36D
:10FE800001E000935700E8951395103898F011277A
:10FE90000091570001700130D9F305E0009357003D
:10FEA000E8950091570001700130D9F301E100930A
:10FEB0005700E8953296029709F0C7CF103011F03D
:10FEC0000296E5CF112468CF81E080930B0298CF92
:10FED00080910C02816080930C0214CF80910C02FF
:10FEE000816080930C02B2CE81E00E94EA7CEFCD6B
:10FEF00082E00E94EA7CEBCD80E10E94EA7CE7CDC3
:10FF00000E94867C0E94867C182F0E94867C11238A
:10FF100031F0113041F08AE00E94EA7CD8CD8EE1C8
:10FF20000E94EA7CD4CD86E90E94EA7CD0CDFFCF46
:02FF300080004F
:040000030000F80001
:00000001FF
