:10F800000C94387C0C94557C0C94557C0C94557C51
:10F810000C94557C0C94557C0C94557C0C94557C24
:10F820000C94557C0C94557C0C94557C0C94557C14
:10F830000C94557C0C94557C0C94557C0C94557C04
:10F840000C94557C0C94557C0C94557C0C94557CF4
:10F850000C94557C0C94557C0C94557C0C94557CE4
:10F860000C94557C0C94557C0C94557C0C94557CD4
:10F8700011241FBECFEFD0E1DEBFCDBF11E0A0E06D
:10F88000B1E0E8EEFEEF02C005900D92A030B107A6
:10F89000D9F712E0A0E0B1E001C01D92A930B10794
:10F8A000E1F70E942A7D0C94737F0C94007CCF9327
:10F8B000DF93CDB7DEB724970FB6F894DEBF0FBE47
:10F8C000CDBF882309F483E020E0482F5527411558
:10F8D000510509F43DC02A9A19821A821B821C82A2
:10F8E0000BC089819A81AB81BC810196A11DB11D9C
:10F8F00089839A83AB83BC8389819A81AB81BC81E4
:10F9000080589E43A040B04060F32A9819821A8222
:10F910001B821C820BC089819A81AB81BC810196BC
:10F92000A11DB11D89839A83AB83BC8389819A8190
:10F93000AB81BC8180589E43A040B04060F32F5FF4
:10F94000822F992787FD9095841795070CF4C3CFD4
:10F9500024960FB6F894DEBF0FBECDBFDF91CF91D6
:10F960000895EF92FF920F931F93EE24FF248701D7
:10F970008091C00087FD17C00894E11CF11C011D97
:10F98000111D81E0E81689E0F8068DE3080780E0A4
:10F99000180770F3E0910001F09101010995809141
:10F9A000C00087FFE9CF8091C600992787FD909519
:10F9B0001F910F91FF90EF900895982F8091C000B4
:10F9C00085FFFCCF9093C60008950E94B17C8032E1
:10F9D00071F0809102018F5F80930201853009F000
:10F9E0000895E0910001F09101010995089584E1E5
:10F9F0000E94DD7C80E10E94DD7C0895CF93C82FBA
:10FA00000E94B17C803241F0809102018F5F80932F
:10FA10000201853081F40AC084E10E94DD7C8C2FD4
:10FA20000E94DD7C80E10E94DD7C05C0E091000148
:10FA3000F09101010995CF910895282F90E007C01A
:10FA40008091C0008823E4F78091C6009F5F9217E1
:10FA5000B8F30895CFEFD0E1DEBFCDBF000089E15C
:10FA60008093C4001092C50088E18093C10086E0B5
:10FA70008093C2005098589A229A83E00E94577C43
:10FA80000E94B17C8033B1F18133B9F1803409F443
:10FA900055C0813409F45BC0823409F46DC08534EB
:10FAA00009F470C0803531F1813521F1823511F1D1
:10FAB000853509F46BC0863509F473C0843609F4C2
:10FAC00075C0843709F4D5C0853709F430C186374D
:10FAD00009F44AC0809102018F5F80930201853052
:10FAE00079F6E0910001F091010109950E94B17C45
:10FAF000803351F60E94E57CC3CF0E94B17CC82FB1
:10FB0000803241F784E10E94DD7C81E40E94DD7C4B
:10FB100086E50E94DD7C82E50E94DD7C8C2F0E94C0
:10FB2000DD7C89E40E94DD7C83E50E94DD7C80E54C
:10FB30000E94DD7C80E10E94DD7CA2CF0E94B17C2E
:10FB40008638C0F20E94B17C0E94E57C99CF0E9469
:10FB5000B17C803809F401C1813809F402C18238CE
:10FB600009F403C1883921F080E00E94FE7C88CF2F
:10FB700083E00E94FE7C84CF84E10E941D7D0E9470
:10FB8000E57C7ECF85E00E941D7DF9CF0E94B17C8F
:10FB9000809303010E94B17C809304010E94E57C64
:10FBA0006FCF84E00E941D7D80E0DFCF0E94B17C9A
:10FBB000809306020E94B17C809305028091080226
:10FBC0008E7F809308020E94B17C853409F44BC07B
:10FBD000E5E0F1E0119281E0E438F807D9F3D0F3E1
:10FBE00000E010E0809105029091060218161906B7
:10FBF00070F4C5E0D1E00E94B17C89930F5F1F4F84
:10FC0000809105029091060208171907A0F30E943F
:10FC1000B17C803209F05ECF8091080280FFA9C0DC
:10FC200000E010E020910502309106021216130642
:10FC3000C0F4E0910301F0910401A5E0B1E0F9996D
:10FC4000FECFF2BDE1BD8D9180BDFA9AF99A319651
:10FC50000F5F1F4F0217130790F3F0930401E09317
:10FC6000030184E165CF80910802816080930802DE
:10FC7000AFCF0E94B17C809306020E94B17C80933A
:10FC800005020E94B17C853409F461C080910802AC
:10FC90008E7F809308028091030190910401880F68
:10FCA000991F90930401809303010E94B17C8032DC
:10FCB00009F0E6CE84E10E94DD7C00E010E02091B6
:10FCC0000502309106021216130608F033CFE091B8
:10FCD0000301F09104018091080280FF1FC0F9998F
:10FCE000FECFF2BDE1BDF89A80B50E94DD7CE091C7
:10FCF0000301F09104013196F0930401E0930301B4
:10FD000020910502309106020F5F1F4F0217130763
:10FD100008F010CF8091080280FDE1CF869580FF2A
:10FD20008CC03196F0930401E0930301EDCF0E9463
:10FD3000B17C803209F0CECE84E10E94DD7C8EE180
:10FD40000E94DD7C86E90E94DD7C89E0F1CE809115
:10FD50000802816080930802A8CF82E00E94FE7CA6
:10FD60008FCE81E00E94FE7C8BCE80E10E94FE7CE3
:10FD700087CE8091030190910401880F991F909381
:10FD80000401809303018091050280FF09C08091E6
:10FD90000502909106020196909306028093050257
:10FDA000F999FECF1127E0910301F0910401C5E01C
:10FDB000D1E08091050290910602103091F40091FB
:10FDC000570001700130D9F303E000935700E89524
:10FDD0000091570001700130D9F301E10093570001
:10FDE000E895099019900091570001700130D9F3FE
:10FDF00001E000935700E8951395103898F011270B
:10FE00000091570001700130D9F305E000935700CD
:10FE1000E8950091570001700130D9F301E100939A
:10FE20005700E8953296029709F0C7CF103011F0CD
:10FE30000296E5CF112484E17BCE84910E94DD7C83
:10FE40002091050230910602E0910301F091040136
:10FE500068CF1F93CF930E94B17CC82F0E94DD7C96
:10FE60000E94B17C182F0E94DD7CC1362CF0C75552
:10FE700011363CF0175508C0C033D4F3C0531136C7
:10FE8000CCF710330CF01053C295C07FC10F8C2FEC
:10FE9000992787FD9095CF911F910895CF93282F93
:10FEA000992787FD9095807F90709595879595957A
:10FEB000879595958795959587958A303CF0895AD1
:10FEC000C22FCF70CA303CF0C95A06C0805DC22F25
:10FED000CF70CA30CCF7C05D0E94DD7C8C2F0E94B1
:08FEE000DD7CCF910895FFCFF6
:040000030000F80001
:00000001FF
